:100000000C942A000C9447000C9447000C94470071
:100010000C9447000C9447000C945E000C946B0009
:100020000C9447000C9447000C9447000C94470034
:100030000C9447000C9447000C9447000C94470024
:100040000C9447000C9447000C9447000C94470014
:100050000C94470011241FBECFE5D4E0DEBFCDBF16
:1000600010E0A0E6B0E0EEEFFCE002C005900D92DB
:10007000A236B107D9F710E0A2E6B0E001C01D92A8
:10008000AF3BB107E1F70E9422010C947D060C946E
:10009000000083E08FBD8AE18EBD1DBC1CBC17BC77
:1000A00016BC92E09BBD89EB8ABD99BD8AE088BDF4
:1000B00088E189BF8FE087BB789408951F920F92E3
:1000C0000FB60F92112418BA1DBC1CBC0F900FBEA6
:1000D0000F901F9018951F920F920FB60F92112438
:1000E0008F939F938091990090919A008130910510
:1000F000B9F0823091051CF4892B39F037C0823079
:100100009105C9F0039791F525C080916A0089BDDA
:100110008091B20088BD81E088BB81E090E015C08D
:100120008091980089BD8091BE0088BD82E088BB27
:1001300082E090E00AC08091B80089BD8091B30050
:1001400088BD84E088BB83E090E090939A00809320
:1001500099000CC080919B0089BD80919D0088BD55
:1001600088E088BB10929A00109299009F918F911D
:100170000F900FBE0F901F901895CF93DF93EA0159
:100180002CE53FE842EA5FE30E941A0620E030E8EF
:100190004FEA53E40E94D0040E943805C230D105D2
:1001A00039F46093BE0070939700709398001BC061
:1001B000C330D10539F46093B30070939700709306
:1001C000B80011C0209739F460939D007093970098
:1001D00070939B0008C0219731F46093B200709334
:1001E000970070936A00DF91CF9108951BB888E162
:1001F0008AB986E880BD10BC86E089B988EE93E0B4
:1002000020E931E0F9013197F1F70197D9F7089525
:1002100020E030E0000000000000000000000000CE
:1002200000000000000000002F5F3F4F821793077F
:1002300088F708958CB95E9BFECF88EE93E00E940C
:10024000080108952F923F924F925F926F927F9292
:100250008F929F92AF92BF92CF92DF92EF92FF92D6
:100260000F931F93CF93DF930E9449000E94F600E3
:100270001ABAFAE56F2E712CE8E78E2E912CC6E99A
:10028000D0E070E9272E71E0372E60E2462E6EE452
:10029000562ECE9BC2C08FEF8093BD006092660049
:1002A00080929C00C093B700C89B0AC08EEB681672
:1002B000710431F00894611C711CC2010197F1F7BF
:1002C000B30180E090E00E94640540E050E00E94AD
:1002D000BD00C99B0AC082E36816710431F008941E
:1002E00061087108C2010197F1F7B30180E090E065
:1002F0000E94640540E050E00E94BD00CA9B0AC015
:100300008EEB8816910431F00894811C911CC20177
:100310000197F1F7B40180E090E00E94640541E0AC
:1003200050E00E94BD00CB9B0AC082E38816910476
:1003300031F0089481089108C2010197F1F7B401E6
:1003400080E090E00E94640541E050E00E94BD0022
:10035000CC9B07C0CE3BD10521F02196C20101976D
:10036000F1F7BE0180E090E00E94640542E050E0B9
:100370000E94BD00CD9B07C0C233D10521F021975B
:10038000C2010197F1F7BE0180E090E00E94640590
:1003900042E050E00E94BD00B30180E090E00E9486
:1003A000640540E050E00E94BD00B40180E090E0B0
:1003B0000E94640541E050E00E94BD00BE0180E063
:1003C00090E00E94640542E050E00E94BD00CF9B97
:1003D000D8C28EEF8093BD0080916200909163003F
:1003E000FC01EE0FFF1FDF01A158BF4F6D927C9201
:1003F000DF01A559BF4F8D929C92E256FF4FD183EA
:10040000C0839093BA008093B900019690936300E3
:1004100080936200CF99FECFB4C28DEF8093BD0070
:1004200080916800809366008091B50080939C0065
:10043000809195008093B7008091B9009091BA00A7
:10044000892B09F47FC21092BC001092BB006DC2D0
:10045000C89B09C0809160009091610005969093BF
:10046000610080936000C99B10C0809160009091F2
:100470006100009729F4109261001092600005C09D
:1004800005979093610080936000D901AA0FBB1F6C
:10049000FD01E158FF4F8081918190936900809325
:1004A0006800FD01E559FF4F808191819093B6006E
:1004B0008093B500A256BF4F8D919C91909396006A
:1004C000809395008091B9009091BA002817390760
:1004D00009F08FC187E30E941A0180E49CE9A9C05A
:1004E0004617570718F44F5F5F4F09C06417750729
:1004F00018F44150504003C04617570721F4509359
:10050000690040936800609168007091690080E024
:1005100090E00E94640540E050E00E94BD008091A0
:10052000B5009091B60020916B0030916C0082175D
:10053000930710F4019608C02817390710F40197A3
:1005400003C08217930721F49093B6008093B500FF
:100550006091B5007091B60080E090E00E94640563
:1005600041E050E00E94BD0080919500909196007E
:1005700020919E0030919F008217930710F40196FE
:1005800008C02817390710F4019703C08217930792
:1005900021F490939600809395006091950070915E
:1005A000960080E090E00E94640542E050E00E94E6
:1005B000BD00609160007091610080E090E00E9459
:1005C00064055B016C0120E030E04AE755E40E94DD
:1005D0001A067B018C0120E030E040E85FE30E94D6
:1005E000340588231CF461E070E022C0C801B70123
:1005F00020E03FEF4FE757E40E9416061816A4F4D8
:10060000C601B50120E030E040E251E40E941A0644
:100610000E94380505C0C1010197F1F76150704093
:1006200061157105C1F707C0C801B7010E943805FF
:10063000CB010197F1F740916800509169006091FA
:100640007F00709180004617570709F049CF20912D
:10065000B5003091B60080916B0090916C00281726
:10066000390709F03DCF2091950030919600809197
:100670009E0090919F002817390709F040CFE6C0EF
:100680004617570718F44F5F5F4F09C06417750787
:1006900018F44150504003C04617570721F45093B7
:1006A000690040936800609168007091690080E083
:1006B00090E00E94640540E050E00E94BD008091FF
:1006C000B5009091B600E091BB00F091BC00EE0F38
:1006D000FF1FE359FF4F0190F081E02D8E179F0718
:1006E00010F4019608C0E817F90710F4019703C049
:1006F0008E179F0721F49093B6008093B500609108
:10070000B5007091B60080E090E00E94640541E081
:1007100050E00E94BD008091950090919600E0917C
:10072000BB00F091BC00EE0FFF1FE056FF4F0190A1
:10073000F081E02D8E179F0710F4019608C0E8178E
:10074000F90710F4019703C08E179F0721F49093C7
:10075000960080939500609195007091960080E0DE
:1007600090E00E94640542E050E00E94BD0060916C
:1007700060007091610080E090E00E9464055B0180
:100780006C0120E030E04AE755E40E941A067B0144
:100790008C0120E030E040E85FE30E9434058823CC
:1007A0001CF461E070E022C0C801B70120E03FEF17
:1007B0004FE757E40E9416061816A4F4C601B501C7
:1007C00020E030E040E251E40E941A060E94380521
:1007D00005C0C1010197F1F76150704061157105C5
:1007E000C1F707C0C801B7010E943805CB010197C6
:1007F000F1F74091680050916900A091BB00B09161
:10080000BC001196AA0FBB1FFD01E158FF4F60818C
:1008100071814617570709F033CFFD01E559FF4FA6
:100820002091B5003091B600808191812817390759
:1008300009F026CFA256BF4F209195003091960027
:100840008D919C912817390709F029CF6091680094
:100850007091690080E090E00E94640540E050E003
:100860000E94BD006091B5007091B60080E090E0FC
:100870000E94640541E050E00E94BD006091950037
:100880007091960080E090E00E94640542E050E0A4
:100890000E94BD00609160007091610080E090E076
:1008A0000E9464055B016C0120E030E04AE755E4FA
:1008B0000E941A067B018C0120E030E040E85FE3F3
:1008C0000E94340588231CF461E070E022C0C80156
:1008D000B70120E03FEF4FE757E40E9416061816D5
:1008E000A4F4C601B50120E030E040E251E40E94EA
:1008F0001A060E94380505C0C1010197F1F7615041
:10090000704061157105C1F707C0C801B7010E94A9
:100910003805CB010197F1F78091BB009091BC00A5
:1009200001969093BC008093BB002091BB00309156
:10093000BC008091B9009091BA008217930708F02B
:1009400087CD1FC060E070E084EB92E440E050E0AF
:100950000E94BD0060E070E080EF92E441E050E072
:100960000E94BD0060E070E086E193E442E050E068
:100970000E94BD0080E197E2F1013197F1F7019704
:10098000D9F78091BD000E941A01862D0E941A019C
:10099000882D0E941A018C2F0E941A017ACC50587F
:1009A000BB27AA270ED008C1F9D030F0FED020F026
:1009B00031F49F3F11F41EF4EEC00EF4E095E7FB16
:1009C000E4C0E92F0AD180F3BA17620773078407DE
:1009D000950718F071F49EF522C10EF4E0950B2EE8
:1009E000BA2FA02D0B01B90190010C01CA01A00181
:1009F0001124FF27591B99F0593F50F4503E68F1DC
:100A00001A16F040A22F232F342F4427585FF3CF1C
:100A1000469537952795A795F0405395C9F77EF4ED
:100A20001F16BA0B620B730B840BBAF09150A1F036
:100A3000FF0FBB1F661F771F881FC2F70EC0BA0FBC
:100A4000621F731F841F48F4879577956795B79544
:100A5000F7959E3F08F0B3CF9395880F08F099273C
:100A6000EE0F9795879508956CD008F481E008956E
:100A7000BCD088F09F5790F0B92F9927B751A0F0BC
:100A8000D1F0660F771F881F991F1AF0BA95C9F722
:100A900012C0B13081F0C3D0B1E00895C0C0672F5B
:100AA000782F8827B85F39F0B93FCCF386957795D2
:100AB0006795B395D9F73EF49095809570956195BB
:100AC0007F4F8F4F9F4F0895E89409C097FB3EF4E6
:100AD00090958095709561957F4F8F4F9F4F99238B
:100AE000A9F0F92F96E9BB279395F6958795779509
:100AF0006795B795F111F8CFFAF4BB0F11F460FFC9
:100B00001BC06F5F7F4F8F4F9F4F16C0882311F020
:100B100096E911C0772321F09EE8872F762F05C034
:100B2000662371F096E8862F70E060E02AF09A95CF
:100B3000660F771F881FDAF7880F9695879597F9C4
:100B40000895990F0008550FAA0BE0E8FEEF16165E
:100B50001706E807F907C0F012161306E407F507B1
:100B600098F0621B730B840B950B39F40A2661F025
:100B7000232B242B252B21F408950A2609F4A140C8
:100B8000A6958FEF811D811D089597F99F6780E8D5
:100B900070E060E008959FEF80EC089500240A94CF
:100BA0001616170618060906089500240A94121648
:100BB0001306140605060895092E0394000C11F47B
:100BC000882352F0BB0F40F4BF2B11F460FF04C028
:100BD0006F5F7F4F8F4F9F4F089557FD9058440F81
:100BE000551F59F05F3F71F04795880F97FB991F8C
:100BF00061F09F3F79F08795089512161306140649
:100C0000551FF2CF4695F1DF08C0161617061806D5
:100C1000991FF1CF86957105610508940895E894B0
:100C2000BB2766277727CB0197F908958ADF08F459
:100C30008FEF08950BD0C0CFB1DF28F0B6DF18F0EA
:100C4000952309F0A2CFA7CF1124EACFC6DFA0F3E6
:100C5000959FD1F3950F50E0551F629FF001729F51
:100C6000BB27F00DB11D639FAA27F00DB11DAA1F70
:100C7000649F6627B00DA11D661F829F2227B00DBD
:100C8000A11D621F739FB00DA11D621F839FA00D48
:100C9000611D221F749F3327A00D611D231F849F98
:100CA000600D211D822F762F6A2F11249F575040EF
:100CB0008AF0E1F088234AF0EE0FFF1FBB1F661F8A
:100CC000771F881F91505040A9F79E3F510570F043
:100CD0005CCFA6CF5F3FECF3983EDCF3869577952B
:100CE0006795B795F795E7959F5FC1F7FE2B880F3E
:0E0CF000911D9695879597F90895F894FFCF7A
:020CFE001400E0
:00000001FF
